:100000000C9462000C948A000C948A000C948A0070
:100010000C948A000C948A000C948A000C948A0038
:100020000C948A000C948A000C948A000C948A0028
:100030000C948A000C948A000C948A000C948A0018
:100040000C9455020C948A000C94C5020C949F02E7
:100050000C948A000C948A000C948A000C948A00F8
:100060000C948A000C948A000000000024002700F1
:100070002A0000000000250028002B0000000000DE
:1000800023002600290004040404040404040202DA
:100090000202020203030303030301020408102007
:1000A0004080010204081020010204081020000012
:1000B0000008000201000003040700000000000027
:1000C0000000BB0311241FBECFEFD8E0DEBFCDBFC1
:1000D00011E0A0E0B1E0E0EEF7E002C005900D9283
:1000E000AC31B107D9F721E0ACE1B1E001C01D921C
:1000F000A23CB207E1F710E0C2E6D0E004C02197CD
:10010000FE010E94E803C136D107C9F70E94F70239
:100110000C94EE030C940000FC01538D448D252FAC
:1001200030E0842F90E0821B930B541710F0CF9691
:10013000089501970895FC01918D828D981761F0C3
:10014000A28DAE0FBF2FB11D5D968C91928D9F5FDA
:100150009F73928F90E008958FEF9FEF0895FC01B9
:10016000918D828D981731F0828DE80FF11D858D6C
:1001700090E008958FEF9FEF0895FC01918D228DFF
:10018000892F90E0805C9F4F821B91098F73992784
:100190000895FC01A48DA80FB92FB11DA35ABF4F1C
:1001A0002C91848D90E001968F739927848FA68976
:1001B000B7892C93A089B1898C91837080648C93CA
:1001C000938D848D981306C00288F389E02D808179
:1001D0008F7D80830895EF92FF920F931F93CF93AB
:1001E000DF93EC0181E0888F9B8D8C8D98131AC072
:1001F000E889F989808185FF15C09FB7F894EE8959
:10020000FF896083E889F9898081837080648083B5
:100210009FBF81E090E0DF91CF911F910F91FF9000
:10022000EF900895F62E0B8D10E00F5F1F4F0F73A8
:100230001127E02E8C8D8E110CC00FB607FCFACF63
:10024000E889F989808185FFF5CFCE010E94C90038
:10025000F1CFEB8DEC0FFD2FF11DE35AFF4FF08234
:100260009FB7F8940B8FEA89FB8980818062CFCF9A
:10027000CF93DF93EC01888D8823B9F0AA89BB89DD
:10028000E889F9898C9185FD03C0808186FD0DC0C8
:100290000FB607FCF7CF8C9185FFF2CF808185FFE9
:1002A000EDCFCE010E94C900E9CFDF91CF91089533
:1002B0008CE191E00E94BD0021E0892B09F420E04F
:1002C000822F089580E090E0892B29F00E94580148
:1002D00081110C9400000895AF92BF92CF92DF92EB
:1002E000EF92FF920F931F93CF93DF936C017B01EB
:1002F0008B01040F151FEB015E01AE18BF08C0177C
:10030000D10759F06991D601ED91FC910190F081EE
:10031000E02DC6010995892B79F7C501DF91CF91B1
:100320001F910F91FF90EF90DF90CF90BF90AF9013
:100330000895833081F028F4813099F08230A9F05B
:1003400008958730A9F08830C9F08430B1F48091E5
:1003500080008F7D03C0809180008F778093800024
:10036000089584B58F7784BD089584B58F7DFBCFC4
:100370008091B0008F778093B00008958091B00095
:100380008F7DF9CFCF93DF93282F30E0F901E2552D
:10039000FF4F8491F901E656FF4FD491F901EA57D6
:1003A000FF4FC491CC23A1F081110E949901EC2F41
:1003B000F0E0EE0FFF1FE458FF4FA591B491EC91D0
:1003C000ED2381E090E009F480E0DF91CF91089582
:1003D00080E090E0FACF1F93CF93DF93282F30E097
:1003E000F901E255FF4F8491F901E656FF4FD49190
:1003F000F901EA57FF4FC491CC23A9F0162F8111C0
:100400000E949901EC2FF0E0EE0FFF1FEE58FF4F16
:10041000A591B4918FB7F894EC91111108C0D095C3
:10042000DE23DC938FBFDF91CF911F910895DE2BE8
:10043000F8CFCF93DF9390E0FC01E656FF4F249175
:100440008A579F4FFC0184918823C9F090E0880F60
:10045000991FFC01E859FF4FA591B491FC01EE589A
:10046000FF4FC591D49161110DC09FB7F8948C9145
:10047000209582238C938881282328839FBFDF9136
:10048000CF910895623051F49FB7F8943C91822F38
:10049000809583238C93E8812E2BEFCF8FB7F89430
:1004A000EC912E2B2C938FBFEACF1F920F920FB699
:1004B0000F9211242F933F938F939F93AF93BF93EA
:1004C0008091BE019091BF01A091C001B091C10186
:1004D0003091BD0123E0230F2D3758F50196A11D62
:1004E000B11D2093BD018093BE019093BF01A093E5
:1004F000C001B093C1018091B9019091BA01A0915E
:10050000BB01B091BC010196A11DB11D8093B90141
:100510009093BA01A093BB01B093BC01BF91AF917E
:100520009F918F913F912F910F900FBE0F901F9031
:10053000189526E8230F0296A11DB11DD2CF1F9258
:100540000F920FB60F9211242F933F934F935F9307
:100550006F937F938F939F93AF93BF93EF93FF938B
:100560008CE191E00E94C900FF91EF91BF91AF91A2
:100570009F918F917F916F915F914F913F912F91BB
:100580000F900FBE0F901F9018951F920F920FB6ED
:100590000F9211242F938F939F93EF93FF93E091EA
:1005A0002C01F0912D018081E0913201F091330115
:1005B00082FD1BC09081809135018F5F8F732091E8
:1005C0003601821741F0E0913501F0E0E45EFE4F24
:1005D000958F80933501FF91EF919F918F912F918E
:1005E0000F900FBE0F901F9018958081F4CF7894D4
:1005F00084B5826084BD84B5816084BD85B5826028
:1006000085BD85B5816085BD80916E0081608093D8
:100610006E00109281008091810082608093810041
:100620008091810081608093810080918000816051
:10063000809380008091B10084608093B1008091AC
:10064000B00081608093B00080917A0084608093D4
:100650007A0080917A00826080937A0080917A009B
:10066000816080937A0080917A00806880937A001C
:100670001092C10061E086E00E94190261E083E00F
:100680000E94190261E085E00E94190261E084E0A5
:100690000E94190261E089E00E94190261E087E08E
:1006A0000E94190261E088E00E94190262E08AE07B
:1006B0000E94190262E08BE00E94190262E08CE065
:1006C0000E94190262E08DE00E94190260E08EE053
:1006D0000E94190260E08FE00E94190260E081E14F
:1006E0000E94190260E080E10E94190260E082E04D
:1006F0000E94190260E086E00E94EB0160E087E062
:100700000E94EB0160E088E00E94EB0160E085E080
:100710000E94EB0160E084E00E94EB01C0E0D0E0C9
:1007200082E00E94C201892BE9F08DE00E94C201A3
:100730008CE00E94C2018BE00E94C2018AE00E940C
:10074000C20145E050E062E171E08CE191E00E947D
:100750006C0142E050E068E171E08CE191E00E94C0
:100760006C01DECF2097E1F20E9458018823C1F28C
:100770000E940000D5CFECE1F1E01382128288EEF6
:1007800093E0A0E0B0E084839583A683B78384E000
:1007900091E09183808385EC90E09587848784EC59
:1007A00090E09787868780EC90E0918B808B81EC3E
:1007B00090E0938B828B82EC90E0958B848B86EC1F
:1007C00090E0978B868B118E128E138E148E089567
:1007D000EE0FFF1F0590F491E02D0994F894FFCFE0
:1007E00000000000EB006C018C003801BD009B0094
:0C07F000AF004C6567616C000D0A000052
:00000001FF
