:020000040000FA
:100000000C9461000C947E000C947E000C947E0095
:100010000C947E000C947E000C947E000C947E0068
:100020000C947E000C947E000C947E000C947E0058
:100030000C947E000C947E000C947E000C947E0048
:100040000C947C060C947E000C947E000C947E0034
:100050000C947E000C947E000C947E000C947E0028
:100060000C947E000C947E00000000002400270009
:100070002A0000000000250028002B0000000000DE
:1000800023002600290004040404040404040202DA
:100090000202020203030303030301020408102007
:1000A0004080010204081020010204081020000012
:1000B0000008000201000003040700000000000027
:1000C000000011241FBECFEFD8E0DEBFCDBF11E08E
:1000D000A0E0B1E0E6EAF7E102C005900D92A4309D
:1000E000B107D9F721E0A4E0B1E001C01D92AD3025
:1000F000B207E1F70E94C6060C94D10B0C940000E5
:10010000833081F028F4813099F08230A9F008958D
:100110008730A9F08830C9F08430B1F48091800034
:100120008F7D03C0809180008F7780938000089539
:1001300084B58F7784BD089584B58F7DFBCF809182
:10014000B0008F778093B00008958091B0008F7DCC
:10015000F9CFCF93DF93282F30E0F901E255FF4F1D
:100160008491F901E656FF4FD491F901EA57FF4F08
:10017000C491CC23A1F081110E948000EC2FF0E00B
:10018000EE0FFF1FE458FF4FA591B491EC91ED23C2
:1001900081E090E009F480E0DF91CF91089580E064
:1001A00090E0FACF1F93CF93DF93282F30E0F9012F
:1001B000E255FF4F8491F901E656FF4FD491F901C2
:1001C000EA57FF4FC491CC23A9F0162F81110E944A
:1001D0008000EC2FF0E0EE0FFF1FEE58FF4FA591CF
:1001E000B4918FB7F894EC91111108C0D095DE232B
:1001F000DC938FBFDF91CF911F910895DE2BF8CF55
:10020000CF93DF9390E0FC01E656FF4F24918A578D
:100210009F4FFC0184918823C9F090E0880F991FBB
:10022000FC01E859FF4FA591B491FC01EE58FF4F36
:10023000C591D49161110DC09FB7F8948C91209510
:1002400082238C938881282328839FBFDF91CF91BD
:100250000895623051F49FB7F8943C91822F8095B5
:1002600083238C93E8812E2BEFCF8FB7F894EC91FA
:100270002E2B2C938FBFEACF1F93CF93DF93182F92
:10028000EB0161E00E940001209739F460E0812FCA
:10029000DF91CF911F910C94D200CF3FD10511F483
:1002A00061E0F5CFE12FF0E0E255FF4FE491E3305C
:1002B00031F140F4E130B1F0E230E1F0C038D10585
:1002C0007CF7E4CFE73029F1E83059F1E430B1F7B9
:1002D00080918000806280938000D0938B00C093D7
:1002E0008A0004C084B5806884BDC7BDDF91CF910A
:1002F0001F91089584B5806284BDC8BDF7CF8091F9
:100300008000806880938000D0938900C09388002B
:10031000EDCF8091B00080688093B000C093B300AF
:10032000E5CF8091B00080628093B000C093B400AC
:10033000DDCF8E50806480937C0080917A00806451
:1003400080937A0080917A0086FDFCCF80917800BE
:100350009091790008953FB7F894809109019091A8
:100360000A01A0910B01B0910C0126B5A89B05C014
:100370002F3F19F00196A11DB11D3FBFBA2FA92F24
:10038000982F8827BC01CD01620F711D811D911D21
:1003900042E0660F771F881F991F4A95D1F708958D
:1003A0008F929F92AF92BF92CF92DF92EF92FF9285
:1003B0006B017C010E94AB014B015C01C114D104B3
:1003C000E104F104B9F00E94AB01681979098A09C6
:1003D0009B09683E73408105910580F321E0C21AB4
:1003E000D108E108F10888EE880E83E0981EA11C70
:1003F000B11CE4CFFF90EF90DF90CF90BF90AF9013
:100400009F908F90089566277727681B790B89E066
:100410000E943C0161E087E00E94D20060E088E039
:100420000C94D200BC01009741F460E085E00E948A
:10043000D20060E084E00C94D20097FF08C0719570
:100440006195710983E00E943C0161E0EFCF83E098
:100450000E943C0160E085E00E94D20061E0EACFAA
:10046000009741F460E087E00E94D20060E088E0FD
:100470000C94D20097FD0C940302BC0189E00E9409
:100480003C0160E087E00E94D20061E0F0CF00977D
:1004900081F04CF09195819591090E94120290E0B3
:1004A00080E00C9430020E94300290E080E00C94D6
:1004B00012020895CF93DF93009761F0EC01882733
:1004C00099278C1B9D0B0E941202CE01DF91CF91C8
:1004D0000C943002DF91CF9108950F931F93CF9327
:1004E000DF938C01EB018FE00E949901853E9240E1
:1004F000A4F481E090E0F801918380838EE00E9473
:100500009901853E92406CF481E090E09983888364
:10051000DF91CF911F910F910895F8011182108200
:10052000EDCF19821882F4CF0F931F93CF93DF93EF
:10053000EC018B0180E10E94A900F8019183808386
:1005400081E10E94A90099838883DF91CF911F9157
:100550000F910895CF93DF93EC010E941202CE0118
:10056000DF91CF910C9430026F927F928F929F9285
:10057000AF92BF92CF92DF92EF92FF920F931F93B1
:10058000CF93DF93CDB7DEB728970FB6F894DEBFD1
:100590000FBECDBF8C011A8219821C821B821E8263
:1005A0001D8218861F82612CF12CE12CAA24BB2409
:1005B000A81AB90A2CE9C22E23E6D22E82E00E94A4
:1005C000A900892B09F48BC0BE016D5F7F4FCE015E
:1005D00001960E946D02BE016B5F7F4FCE010796B0
:1005E0000E94940229813A818B819C81232B09F0FE
:1005F00060C0892B09F071C08F8098848D819E81A5
:10060000892B41F0C501892849F08FEF90E00E94C5
:10061000AA02D4CF8114910421F0C8010E945A0289
:10062000CDCFE114F10489F4C8010E94AA02C601E9
:10063000B8010E94A30B072E000C880B990B0E9497
:10064000D0018FEFE81AF80AB9CF81E0E816F1047B
:1006500019F490E080E0E9CF82E0E816F10421F39C
:1006600083E0E816F104A9F384E0E816F104E9F464
:1006700060FC0EC0C8010E945A0264E670E080E08F
:1006800090E00E94D00134018FEF681A780AD9CF28
:10069000C5010E945A0264E670E080E090E00E948A
:1006A000D00188248394912CEECFEE24EA94FE2C82
:1006B000C8CF892B71F0C5010E94AA02C601B801FA
:1006C0000E94A30B072E000C880B990B0E94D001EF
:1006D00075CFC5010E944702F1CFC801FBCF289614
:1006E0000FB6F894DEBF0FBECDBFDF91CF911F9143
:1006F0000F91FF90EF90DF90CF90BF90AF909F90C1
:100700008F907F906F9008958F929F92AF92BF923B
:10071000CF92DF92EF92FF920F931F93CF93DF93CD
:10072000CDB7DEB728970FB6F894DEBF0FBECDBFAA
:100730008C011A8219821C821B821E821D821886DD
:100740001F82EE24FF24E81AF90A2CE9A22E23E6E0
:10075000B22E82E00E94A900892B09F46EC0BE016E
:100760006D5F7F4FCE0101960E946D02BE016B5FEF
:100770007F4FCE0107960E94940229813A818B8196
:100780009C81232BD9F5892B09F055C08F81988541
:100790002D813E81232B31F0892B41F4C7010E942A
:1007A0005A02D7CF892B39F0C801F9CF8FEF90E0EB
:1007B0000E94AA02CECF83E3C82ED12C9BE4892EBF
:1007C000912CC4010E94AA0264E670E080E090E0EF
:1007D0000E94D001B401990C880B990B0E94AA0ABF
:1007E00020E030E040E250E40E94060A0E94720AD3
:1007F0004B0181E0C81AD10821F7ABCF892BB9F0A2
:10080000C7010E94AA02C501B8010E94A30B072ECE
:10081000000C880B990B0E94D001C8010E945A025B
:100820006FEA70E080E090E00E94D00192CFC701B3
:100830000E944702F5CFC801FBCF28960FB6F89467
:10084000DEBF0FBECDBFDF91CF911F910F91FF9003
:10085000EF90DF90CF90BF90AF909F908F900895D2
:100860002F923F924F925F926F927F928F929F92C0
:10087000AF92BF92CF92DF92EF92FF920F931F93AE
:10088000CF93DF93CDB7DEB728970FB6F894DEBFCE
:100890000FBECDBF8C011A8219821C821B821E8260
:1008A0001D8218861F826C01990FEE08FF0888E3ED
:1008B000482E87EC582E612C712C22243324201AC8
:1008C000310A82E00E94A900892B09F47EC0BE0192
:1008D0006D5F7F4FCE0101960E946D02BE016B5F7E
:1008E0007F4FCE0107960E94940289819A81892BBD
:1008F00009F04FC08B819C81892B09F04AC08F8100
:1009000098852D813E81232B59F0892B81F48FEF1F
:1009100090E00E94120281E09FEF0E940302D1CF7B
:10092000892B99F18FEF90E00E945A02CACF8FB7BE
:10093000F8948090050190900601A0900701B09076
:1009400008018FBF2FB7F89480910501909106019F
:10095000A0910701B09108012FBF88199909AA0930
:10096000BB09803D9740A105B10528F48FEF90E0C9
:100970000E94AA02E7CFC8010E94470264E670E025
:1009800080E090E00E94D0019CCFC8010E94AA02A2
:1009900098CF81E09FEF0E94AA0264E670E080E0B9
:1009A00090E00E94D00189819A81892B61F0C10178
:1009B0000E944702C301B201A70196010E94A20949
:1009C000CA01B901DFCFC801F3CF28960FB6F8945A
:1009D000DEBF0FBECDBFDF91CF911F910F91FF9072
:1009E000EF90DF90CF90BF90AF909F908F907F90CF
:1009F0006F905F904F903F902F9008952F923F926D
:100A00004F925F926F927F928F929F92AF92BF921E
:100A1000CF92DF92EF92FF920F931F93CF93DF93CA
:100A2000CDB7DEB728970FB6F894DEBF0FBECDBFA7
:100A30008C011A8219821C821B821E821D821886DA
:100A40001F82CC24C394D12C4C01092E000CAA087F
:100A5000BB0838E3432E37EC532E612C712C222433
:100A60003324281A390A82E00E94A900892B09F44C
:100A700083C0BE016D5F7F4FCE0101960E946D0263
:100A8000BE016B5F7F4FCE0107960E949402898161
:100A90009A81892B09F040C08B819C81892BE1F5DB
:100AA0008F8198852D813E81232B59F0892B81F4EC
:100AB0008FEF90E00E94120281E09FEF0E940302FC
:100AC000D2CF892B51F08FEF90E00E945A02CBCF0A
:100AD0008FEF90E00E94AA02C6CFC09E7001C19E17
:100AE000F00CD09EF00C11241E141F0444F490E06E
:100AF00080E00E941202C7010E943002B4CFE114CC
:100B0000F10409F4B0CF882799278E199F090E9414
:100B1000120290E080E0F0CF81E09FEF0E94AA02F5
:100B200062E370E080E090E00E94D00189819A81C8
:100B3000892B89F0C1010E944702C301B201A501BE
:100B400094010E94A209CA01B9010E94D001CC24DB
:100B5000CA94DC2C88CFC8010E944702C301B201AD
:100B6000A50194010E94A209CA01B9010E94D00105
:100B7000CC24C394D12C77CF28960FB6F894DEBF3F
:100B80000FBECDBFDF91CF911F910F91FF90EF90DE
:100B9000DF90CF90BF90AF909F908F907F906F909D
:100BA0005F904F903F902F9008954F925F926F9279
:100BB0007F92AF92BF92CF92DF92EF92FF920F930C
:100BC0001F93CF93DF93CDB7DEB728970FB6F89476
:100BD000DEBF0FBECDBF8C011A8219821C821B8220
:100BE0001E821D8218861F8283E2482E512C612CA2
:100BF000712CAA24BB24A01AB10A82E00E94A90089
:100C0000892B09F464C0BE016D5F7F4FCE01019650
:100C10000E946D02BE016B5F7F4FCE0107960E945E
:100C2000940289819A81892BD9F48B819C81892BAB
:100C3000B9F48F8198852D813E81232B31F0892B4A
:100C400041F4C5010E945A02D8CF892B39F0C8015E
:100C5000F9CF8FEF90E00E94AA02CFCFC801FBCF5F
:100C60000E944A096B017C0181E09FEF0E94AA0269
:100C70006AE070E080E090E00E94D001C701B60118
:100C8000A30192010E94A2096B017C012EEBC20E0E
:100C9000D11CE11CF11C89819A81892B71F08B8117
:100CA0009C81892B61F081E09FEF0E94AA0260E5A0
:100CB00070E080E090E00E94D001C80101C0C50151
:100CC0000E944702C701B6010E94D00196CF289624
:100CD0000FB6F894DEBF0FBECDBFDF91CF911F914D
:100CE0000F91FF90EF90DF90CF90BF90AF907F90EB
:100CF0006F905F904F9008951F920F920FB60F92D2
:100D000011242F933F938F939F93AF93BF93809121
:100D1000050190910601A0910701B0910801309161
:100D2000040123E0230F2D3758F50196A11DB11DB5
:100D3000209304018093050190930601A09307017D
:100D4000B09308018091090190910A01A0910B01D3
:100D5000B0910C010196A11DB11D809309019093E2
:100D60000A01A0930B01B0930C01BF91AF919F9129
:100D70008F913F912F910F900FBE0F901F9018955C
:100D800026E8230F0296A11DB11DD2CFCF93DF938A
:100D9000CDB7DEB728970FB6F894DEBF0FBECDBF34
:100DA000789484B5826084BD84B5816084BD85B546
:100DB000826085BD85B5816085BD80916E00816052
:100DC00080936E00109281008091810082608093F8
:100DD00081008091810081608093810080918000FA
:100DE0008160809380008091B10084608093B10025
:100DF0008091B00081608093B00080917A0084601F
:100E000080937A0080917A00826080937A0080914A
:100E10007A00816080937A0080917A008068809364
:100E20007A001092C10061E086E00E94000161E05A
:100E300083E00E94000161E085E00E94000161E022
:100E400084E00E94000161E089E00E94000161E00D
:100E500087E00E94000161E088E00E94000162E0FA
:100E60008AE00E94000162E08BE00E94000162E0E3
:100E70008CE00E94000162E08DE00E94000160E0D1
:100E80008EE00E94000160E08FE00E94000160E0BF
:100E900081E10E94000160E080E10E94000160E0C9
:100EA00082E00E94000160E086E00E94D20090E0B3
:100EB00080E00E94300290E080E00E94120243E253
:100EC000842E912CA12CB12C82E00E94A900892BA8
:100ED00009F484C18DE00E94A90031E020E001976F
:100EE00009F030E0032F122F8CE00E94A900019737
:100EF00009F402608BE00E94A900019709F40460E4
:100F00008AE00E94A900019709F408600C301105DD
:100F1000D8F6F801E257F84F0C94B70B9A079F07E1
:100F2000A207A707AA07AF07B207B707BA07BF0705
:100F3000C207470880EA90E00E94FE04C5CF8FEF09
:100F400090E0FACF80EA90E00E948403BDCF8FEF5B
:100F500090E0FACF80EA90E00E94B402B5CF8FEF24
:100F600090E0FACF80EA90E00E94D505ADCF8FEFF8
:100F700090E0FACF80EA90E00E943004A5CF8FEF96
:100F800090E0FACF18861F821E821D821C821B826F
:100F90001A82198282E00E94A900892B09F494CF59
:100FA000BE016B5F7F4FCE0107960E946D02BE01AE
:100FB0006D5F7F4FCE0101960E9494028F819885CC
:100FC000892B31F58D819E81892B11F589819A813B
:100FD0002B813C81232B59F0892B91F48FEF90E0EA
:100FE0000E94120290E080E00E943002D3CF892B51
:100FF00061F090E080E00E9412028FEF90E0F4CF69
:101000008FEF90E00E94AA02C5CF80EA90E0FACF6D
:101010000E944A096B017C0181E09FEF0E94AA02B5
:101020006AE070E080E090E00E94D001C701B60164
:10103000A50194010E94A2096B017C012EEBC20E56
:10104000D11CE11CF11C8F819885892B71F08D8159
:101050009E81892B79F081E09FEF0E94AA0260E5D2
:1010600070E080E090E00E94D00180EA90E00E9471
:10107000470208C080E69FEF0E94300290E080E0C7
:101080000E941202C701B6010E94D00183CF1886C8
:101090001F821E821D821C821B821A821982EE24EC
:1010A000E394F12C30EAD32E82E00E94A900892B30
:1010B00009F40ACFBE016B5F7F4FCE0107960E94F5
:1010C0006D02BE016D5F7F4FCE0101960E949402BA
:1010D0008F819885892B09F053C08D819E81892B42
:1010E00009F04EC089819A812B813C81232B59F0D4
:1010F000892B91F48FEF90E00E94120290E080E043
:101100000E943002D1CF892B61F090E080E00E94F4
:1011100012028FEF90E0F4CF8FEF90E00E94AA02CE
:10112000C3CFDE9C8001DF9C100D11242801012E0D
:10113000000C66087708101611068CF4C301B20182
:101140000E94AA0A20E030E040E45FE30E94360BF0
:101150000E94720ACB010E941202C801D1CFC801BD
:101160000E941202C301B2010E94AA0A20E030E0EC
:1011700040E45FE30E94360B0E94720ACB01C0CFAD
:1011800081E09FEF0E94AA0268E270E080E090E0B8
:101190000E94D0018F819885892B91F080E69FEF86
:1011A0000E94300290E080E00E9412026EE371E043
:1011B00080E090E00E94D001EE24EA94FE2C74CFEF
:1011C00080EA90E00E9447026EE371E080E090E0E8
:1011D0000E94D001EE24E394F12C66CF90E080E0F1
:1011E0000E94120290E080E00E94300280E090E0D5
:1011F000892B09F469CE0E94000066CE8F929F92DF
:10120000AF92BF92CF92DF92EF92FF92CF93DF9394
:10121000EC01688179818A819B8161157105810565
:10122000910521F464E279ED8BE597E02DE133EF50
:1012300041E050E00E94A20949015A019B01AC0122
:10124000A7EAB1E40E94C1096B017C01ACEEB4EFE6
:10125000A50194010E94CF09C60ED71EE81EF91EF3
:10126000F7FE06C081E0C81AD108E10880E8F80A54
:10127000C882D982EA82FB82C701B6019F77DF91DB
:10128000CF91FF90EF90DF90CF90BF90AF909F9065
:101290008F9008958F929F92AF92BF92CF92DF92DC
:1012A000EF92FF9260910001709101018091020123
:1012B00090910301611571058105910521F464E2A6
:1012C00079ED8BE597E02DE133EF41E050E00E94AE
:1012D000A20949015A019B01AC01A7EAB1E40E94AD
:1012E000C1096B017C01ACEEB4EFA50194010E9431
:1012F000CF09C60ED71EE81EF91EF7FE06C081E014
:10130000C81AD108E10880E8F80AC0920001D0921A
:101310000101E0920201F0920301C701B6019F773B
:10132000FF90EF90DF90CF90BF90AF909F908F9005
:1013300008956093000170930101809302019093DE
:1013400003010895052E97FB1EF400940E94B9092D
:1013500057FD07D00E94D40907FC03D04EF40C942B
:10136000B90950954095309521953F4F4F4F5F4FAC
:10137000089590958095709561957F4F8F4F9F4F01
:1013800008950E94F609A59F900DB49F900DA49F0B
:10139000800D911D11240895B7FF0C94C1090E947E
:1013A000C109821B930B0895A1E21A2EAA1BBB1B35
:1013B000FD010DC0AA1FBB1FEE1FFF1FA217B30721
:1013C000E407F50720F0A21BB30BE40BF50B661F37
:1013D000771F881F991F1A9469F7609570958095FB
:1013E00090959B01AC01BD01CF010895A29FB00172
:1013F000B39FC001A39F700D811D1124911DB29F49
:10140000700D811D1124911D08955058BB27AA27E6
:101410000E941D0A0C94FC0A0E94EE0A38F00E94F9
:10142000F50A20F039F49F3F19F426F40C94EB0AE6
:101430000EF4E095E7FB0C94E50AE92F0E940D0BF2
:1014400058F3BA17620773078407950720F079F4F9
:10145000A6F50C942F0B0EF4E0950B2EBA2FA02DB1
:101460000B01B90190010C01CA01A0011124FF2751
:10147000591B99F0593F50F4503E68F11A16F0404C
:10148000A22F232F342F4427585FF3CF469537954B
:101490002795A795F0405395C9F77EF41F16BA0B10
:1014A000620B730B840BBAF09150A1F0FF0FBB1FBE
:1014B000661F771F881FC2F70EC0BA0F621F731F07
:1014C000841F48F4879577956795B795F7959E3F64
:1014D00008F0B0CF9395880F08F09927EE0F9795F5
:1014E000879508950E94790A6894B1110C94300B85
:1014F00008950E94150B88F09F5798F0B92F9927EF
:10150000B751B0F0E1F0660F771F881F991F1AF0EE
:10151000BA95C9F714C0B13091F00E942F0BB1E019
:1015200008950C942F0B672F782F8827B85F39F018
:10153000B93FCCF3869577956795B395D9F73EF487
:1015400090958095709561957F4F8F4F9F4F08952F
:10155000E89409C097FB3EF490958095709561954D
:101560007F4F8F4F9F4F9923A9F0F92F96E9BB2703
:101570009395F695879577956795B795F111F8CF7F
:10158000FAF4BB0F11F460FF1BC06F5F7F4F8F4FEA
:101590009F4F16C0882311F096E911C0772321F0E0
:1015A0009EE8872F762F05C0662371F096E8862F78
:1015B00070E060E02AF09A95660F771F881FDAF7CF
:1015C000880F9695879597F9089597F99F6780E812
:1015D00070E060E008959FEF80EC089500240A9485
:1015E0001616170618060906089500240A941216FE
:1015F0001306140605060895092E0394000C11F431
:10160000882352F0BB0F40F4BF2B11F460FF04C0DD
:101610006F5F7F4F8F4F9F4F089557FD9058440F36
:10162000551F59F05F3F71F04795880F97FB991F41
:1016300061F09F3F79F087950895121613061406FE
:10164000551FF2CF4695F1DF08C01616170618068B
:10165000991FF1CF86957105610508940895E89466
:10166000BB2766277727CB0197F908950E94490B7E
:101670000C94FC0A0E94EE0A38F00E94F50A20F051
:10168000952311F00C94E50A0C94EB0A11240C94A8
:10169000300B0E940D0B70F3959FC1F3950F50E036
:1016A000551F629FF001729FBB27F00DB11D639F14
:1016B000AA27F00DB11DAA1F649F6627B00DA11DBA
:1016C000661F829F2227B00DA11D621F739FB00D60
:1016D000A11D621F839FA00D611D221F749F3327D0
:1016E000A00D611D231F849F600D211D822F762F69
:1016F0006A2F11249F5750409AF0F1F088234AF046
:10170000EE0FFF1FBB1F661F771F881F91505040B1
:10171000A9F79E3F510580F00C94E50A0C94300B1C
:101720005F3FE4F3983ED4F3869577956795B79538
:10173000F795E7959F5FC1F7FE2B880F911D969552
:10174000879597F9089597FB072E16F4009407D014
:1017500077FD09D00E94BD0B07FC05D03EF49095A3
:1017600081959F4F0895709561957F4F0895EE0F75
:10177000FF1F0590F491E02D0994AA1BBB1B51E1BA
:1017800007C0AA1FBB1FA617B70710F0A61BB70BF1
:10179000881F991F5A95A9F780959095BC01CD0196
:0A17A0000895F894FFCF0100000047
:107800000C94343C0C94513C0C94513C0C94513CE1
:107810000C94513C0C94513C0C94513C0C94513CB4
:107820000C94513C0C94513C0C94513C0C94513CA4
:107830000C94513C0C94513C0C94513C0C94513C94
:107840000C94513C0C94513C0C94513C0C94513C84
:107850000C94513C0C94513C0C94513C0C94513C74
:107860000C94513C0C94513C11241FBECFEFD8E036
:10787000DEBFCDBF11E0A0E0B1E0ECE9FFE702C060
:1078800005900D92A230B107D9F712E0A2E0B1E065
:1078900001C01D92AD30B107E1F70E942D3D0C945F
:1078A000CC3F0C94003C982F959595959595959582
:1078B000905D8F708A307CF0282F295A8091C0000B
:1078C00085FFFCCF9093C6008091C00085FFFCCF60
:1078D0002093C6000895282F205DF0CF982F809127
:1078E000C00085FFFCCF9093C6000895EF92FF92F1
:1078F0000F931F93EE24FF2487018091C00087FD22
:1079000017C00894E11CF11C011D111D81E4E8164B
:1079100082E4F8068FE0080780E0180770F3E09132
:107920000401F091050109958091C00087FFE9CF1E
:107930008091C6001F910F91FF90EF9008950E94D3
:10794000763C982F8091C00085FFFCCF9093C600B5
:1079500091362CF490330CF09053892F089597555D
:10796000892F08951F930E949F3C182F0E949F3CCF
:107970001295107F810F1F9108951F93182F882350
:1079800021F00E94763C1150E1F71F9108951F935A
:10799000182F0E94763C803249F0809103018F5F5E
:1079A000809303018530C1F01F9108958091C0003C
:1079B00085FFFCCF84E18093C6008091C00085FFE5
:1079C000FCCF1093C6008091C00085FFFCCF80E102
:1079D0008093C6001F910895E0910401F091050184
:1079E00009951F9108950E94763C803241F0809164
:1079F00003018F5F80930301853081F008958091AA
:107A0000C00085FFFCCF84E18093C6008091C00058
:107A100085FFFCCF80E18093C6000895E0910401CA
:107A2000F09105010995089540E951E08823A1F0FE
:107A30002D9A28EE33E0FA013197F1F721503040CA
:107A4000D1F72D9828EE33E0FA013197F1F7215064
:107A50003040D1F7815061F708953F924F925F9285
:107A60006F927F928F929F92AF92BF92CF92DF924E
:107A7000EF92FF920F931F93CF93DF93000080E16B
:107A80008093C4001092C50088E18093C10086E015
:107A90008093C2005098589A259A81E00E94143D24
:107AA00024E1F22E9EE1E92E85E9D82E0FE0C02ECA
:107AB00010E1B12EAA24A394B1E49B2EA6E58A2E50
:107AC000F2E57F2EE0E26E2E79E4572E63E5462E36
:107AD00050E5352E0E94763C8033B1F18133B9F107
:107AE000803409F46FC0813409F476C0823409F41B
:107AF00085C0853409F488C0803531F1823521F1A3
:107B0000813511F1853509F485C0863509F48DC0BC
:107B1000843609F496C0843709F403C1853709F423
:107B200072C1863709F466C0809103018F5F80932C
:107B30000301853079F6E0910401F0910501099582
:107B40000E94763C803351F60E94F33CC3CF0E94E2
:107B5000763C803249F78091C00085FFFCCFF092DF
:107B6000C6008091C00085FFFCCF9092C600809136
:107B7000C00085FFFCCF8092C6008091C00085FFC9
:107B8000FCCF7092C6008091C00085FFFCCF609250
:107B9000C6008091C00085FFFCCF5092C600809146
:107BA000C00085FFFCCF4092C6008091C00085FFD9
:107BB000FCCF3092C6008091C00085FFFCCFB09210
:107BC000C60088CF0E94763C863808F4BDCF0E945C
:107BD000763C0E94F33C7ECF0E94763C803809F4CC
:107BE0009CC0813809F40BC1823809F43CC1883942
:107BF00009F48FC080E00E94C73C6CCF84E10E94F2
:107C0000BD3C0E94F33C66CF85E00E94BD3C0E94D3
:107C1000F33C60CF0E94763C809306010E94763C44
:107C2000809307010E94F33C55CF0E94763C80333D
:107C300009F41DC183E00E94BD3C80E00E94C73C66
:107C400049CF0E94763C809309020E94763C809343
:107C5000080280910C028E7F80930C020E94763C79
:107C6000853409F415C18091080290910902892B8D
:107C700089F000E010E00E94763CF801E85FFE4FDA
:107C800080830F5F1F4F80910802909109020817AF
:107C9000190788F30E94763C803209F045CF809125
:107CA0000C0280FF01C16091060170910701660F0F
:107CB000771F7093070160930601A0910802B091AD
:107CC00009021097C9F0E8E0F1E09B01AD014E0F09
:107CD0005F1FF999FECF32BD21BD819180BDFA9A17
:107CE000F99A2F5F3F4FE417F50799F76A0F7B1F4B
:107CF00070930701609306018091C00085FFFCCF5F
:107D0000F092C6008091C00085FFFCCFB092C60003
:107D1000E1CE83E00E94C73CDDCE82E00E94C73CFA
:107D2000D9CE0E94763C809309020E94763C8093D3
:107D300008028091060190910701880F991F909386
:107D40000701809306010E94763C853409F4A6C0A1
:107D500080910C028E7F80930C020E94763C8032D0
:107D600009F0B8CE8091C00085FFFCCFF092C6002C
:107D7000609108027091090261157105B9F140E046
:107D800050E080910C02A82FA170B82FB27011C0E2
:107D9000BB2309F45CC0E0910601F0910701319624
:107DA000F0930701E09306014F5F5F4F46175707B7
:107DB000E8F4AA2369F3F999FECF209106013091E6
:107DC000070132BD21BDF89A90B58091C00085FFB2
:107DD000FCCF9093C6002F5F3F4F30930701209355
:107DE00006014F5F5F4F4617570718F38091C00099
:107DF00085FDE5CE8091C00085FFF8CFE0CE81E023
:107E00000E94C73C67CE0E94763C803209F08CCE3F
:107E10008091C00085FFFCCFF092C6008091C00029
:107E200085FFFCCFE092C6008091C00085FFFCCFAB
:107E3000D092C6008091C00085FFFCCFC092C600E2
:107E40008091C00085FFFCCFB092C60043CEE09188
:107E50000601F091070194918091C00085FFFCCF4D
:107E60009093C6009CCF80E10E94C73C33CE0E9415
:107E7000763C0E94763C182F0E94763C112309F430
:107E800083C0113009F484C08FE00E94C73C22CE29
:107E900080910C02816080930C02E5CE80910C02EF
:107EA000816080930C0259CF809107018823880F4D
:107EB000880B8A2180930B02809106019091070123
:107EC000880F991F90930701809306018091080203
:107ED00080FF09C080910802909109020196909359
:107EE000090280930802F894F999FECF1127E091D6
:107EF0000601F0910701C8E0D1E08091080290915D
:107F00000902103091F40091570001700130D9F34B
:107F100003E000935700E89500915700017001308D
:107F2000D9F301E100935700E89509901990009169
:107F3000570001700130D9F301E000935700E89534
:107F40001395103498F011270091570001700130FB
:107F5000D9F305E000935700E895009157000170B0
:107F60000130D9F301E100935700E895329602976A
:107F700009F0C7CF103011F00296E5CF112480919F
:107F8000C00085FFB9CEBCCE8EE10E94C73CA2CD19
:0E7F900085E90E94C73C9ECDF894FFCF80008B
:00000001FF
